:03000000020030CB
:0F003000900300780079007A007B007C007D004F
:0F003F00BF000E780079057A097B057C037D02EE
:0F004E007F000F118808B80AF9780009B906F386
:0F005D0079000ABA0AED7A000BBB06E77B00EDCB
:0F006C006402600A70000CBC0ADA7C0080080C89
:10007B00BC04D27C007D020DBD03CA80AB7E52E86E
:0F008B0093D2A0F59011C9C2A0E993D2A1F5902C
:10009A0011C9C2A1EA93D2A2F59011C9C2A2EB93E7
:1000AA00D2A3F59011C9C2A3EC93D2A4F59011C9B9
:0F00BA00C2A4ED93D2A5F59011C9C2A5DEC22252
:0D00C900D2D47A0A7B64DBFEDAFAC2D422BC
:0A0300003F065B4F666D7D077F6FBF
:00000001FF
